:020000040800F2
:100000006816002089010008054B0008074B00080E
:100010000B4B00080F4B0008134B000800000000BA
:10002000000000000000000000000000174B000866
:10003000194B0008000000003B4600081B4B00085D
:10004000A3010008A3010008A3010008A301000800
:10005000A3010008A3010008A3010008A3010008F0
:10006000A3010008A3010008A3010008A3010008E0
:10007000A3010008A3010008A3010008A3010008D0
:10008000A3010008A3010008A3010008A3010008C0
:10009000A3010008A3010008A3010008A3010008B0
:1000A000A3010008A3010008A3010008A3010008A0
:1000B0003D4B0008A3010008EB4B0008A30100081A
:1000C000A3010008A3010008A3010008A301000880
:1000D000A3010008A3010008A3010008A301000870
:1000E000A3010008A3010008A301000800F002F822
:1000F00000F03AF80AA090E8000C82448344AAF188
:100100000107DA4501D100F02FF8AFF2090EBAE885
:100110000F0013F0010F18BFFB1A43F0010318473B
:100120005C4E00007C4E0000103A24BF78C878C1B5
:10013000FAD8520724BF30C830C144BF04680C60ED
:10014000704700000023002400250026103A28BF35
:1001500078C1FBD8520728BF30C148BF0B60704739
:100160001FB51FBD10B510BD04F059FE1146FFF7B5
:10017000F7FF04F061FC04F077FE03B4FFF7F2FF31
:1001800003BC04F047FD00000948804709480047C8
:10019000FEE7FEE7FEE7FEE7FEE7FEE7FEE7FEE737
:1001A000FEE7FEE704480549054A064B7047000094
:1001B000A5020008ED000008681000206816002065
:1001C00068120020681200200CB5002001900090F9
:1001D0006B48006840F480306949086000BF684897
:1001E000006800F4003000900198401C01900098D5
:1001F00018B90198B0F5A06FF1D16148006810F40A
:10020000003F02D00120009001E000200090009803
:10021000012842D15B48006840F01000594908604D
:100220000846006820F0030008600846006840F0B7
:1002300002000860524840685149486008464068DA
:1002400048600846406840F480604860084640685E
:1002500020F47C1048600846406840F4E81048608C
:100260000846006840F08070086000BF444800689D
:1002700010F0007FFAD04248406820F00300404967
:1002800048600846406840F00200486000BF3C48B3
:10029000406800F00C000828F9D10CBD10B5FFF73C
:1002A00093FF10BD10B53648006840F00100344996
:1002B00008600846406834490840314948600846AB
:1002C0000068324908402E4908600846006820F45A
:1002D000802008600846406820F4FE0048604FF423
:1002E0001F008860FFF7DAFF4FF0006028490860C0
:1002F00010BD10B5002100200022214B5B6803F0E7
:100300000C0121B1042906D0082928D107E0214B8E
:10031000214C236027E01F4B1F4C236023E0184B28
:100320005B6803F47010164B5B6803F480320223A1
:1003300003EB904022B9194B4343174C23600DE067
:100340000F4B5B6813F4003F04D0144B4343124C33
:10035000236003E00F4B43430F4C236003E00D4B3E
:100360000D4C236000BF00BF054B5B68C3F3031354
:100370000B4CE15C084B1B68CB40074C236010BD65
:1003800000100240002002400000FFF8FFFFF6FED0
:1003900008ED00E000127A000000002000093D0096
:1003A0000400002031490143314A1160704770B5A3
:1003B000002100230F22C4780CB32D4C246804F4D0
:1003C000E064C4F5E064210AC1F10403CA40447842
:1003D00004FA03F18478144021430901254C06787E
:1003E000A155047804F01F050124AC4005786D1177
:1003F0004FF0E02606EB8505C5F8004109E00478DA
:1004000004F01F050124AC401B4D0678761145F819
:10041000264070BD194A0A400243154B1B1F1A6043
:10042000704739B1124A121D12680243104B1B1D4E
:100430001A6006E00E4A121D126882430C4B1B1D07
:100440001A607047042808D14FF0E021096941F093
:1004500004014FF0E022116107E04FF0E02109694B
:1004600021F004014FF0E022116170470000FA050D
:100470000CED00E000E400E080E100E080FFFF1F01
:1004800010B50446CA48844208D10121042000F076
:1004900027FB0021042000F023FB46E0C5488442EE
:1004A00008D10121082000F01BFB0021082000F0EA
:1004B00017FB3AE0C048844208D10121102000F027
:1004C0000FFB0021102000F00BFB2EE0BB48844204
:1004D00008D10121202000F003FB0021202000F0A2
:1004E000FFFA22E0B648844208D10121402000F002
:1004F000F7FA0021402000F0F3FA16E0B1488442F8
:1005000008D10121802000F0EBFA0021802000F0CA
:10051000E7FA0AE0AC48844207D10121801500F0D7
:10052000DFFA0021A01500F0DBFA10BD10B50121A3
:10053000084600F0D5FA0021012000F0D1FA10BDE4
:100540002DE9F0410246002500260020002300246A
:10055000002791F803C00CF00F0591F803C01CF0C0
:10056000100F03D091F802C04CEA050591F800C0C5
:10057000BCF1000F31D0146800202BE04FF0010CCB
:100580000CFA00F3B1F800C00CEA03069E4220D139
:1005900083004FF00F0C0CFA03F7BC4305FA03FC81
:1005A0004CEA040491F803C0BCF1280F06D14FF0C7
:1005B000010C0CFA00FCC2F814C00AE091F803C068
:1005C000BCF1480F05D14FF0010C0CFA00FCC2F849
:1005D00010C0401C0828D1D31460B1F800C0BCF191
:1005E000FF0F34DD546800202EE000F1080C4FF0BE
:1005F000010808FA0CF3B1F800C00CEA03069E42A9
:1006000021D183004FF00F0C0CFA03F7BC4305FA1D
:1006100003FC4CEA040491F803C0BCF1280F05D197
:1006200000F1080C08FA0CF8C2F8148091F803C025
:10063000BCF1480F07D100F1080C4FF0010808FA8F
:100640000CF8C2F81080401C0828CED35460BDE8D6
:10065000F0814FF6FF710180022181700421C17089
:1006600070470246002093680B4201D0012000E051
:10067000002070470146886880B27047024600201B
:10068000D3680B4201D0012000E0002070470146F2
:10069000C86880B2704701617047416170470AB114
:1006A000016100E041617047C16070474FF48032E2
:1006B0000A43826181618261826982697047024670
:1006C0000020424B18684FF68073184040EA021031
:1006D00008433E4B186070473D49C8617047F0B50C
:1006E0000A46002300240021002500F00046B6F150
:1006F000004F02D1354EF16901E0344E7168C0F30C
:10070000034583B200F44016B6F5401F08D121F02E
:1007100070612E4E766826F070662C4F7E6012E077
:1007200000F48016B6F5801F06D1032606FA05F4FC
:10073000A14341F0706106E0460D360103FA06F66A
:10074000B14341F0706122B1460D360103FA06F65D
:10075000314300F00046B6F1004F02D11B4EF1616B
:1007600001E01A4E7160F0BD30B500228B071C0FFE
:100770000F2303FA04F2154B08338C1053F824307E
:100780009343124C08348D1044F8253023468C10C6
:1007900053F824308C07240F00FA04F423430B4C45
:1007A00008348D1044F8253030BD0A490860704780
:1007B00000080140000C01400010014000140140FD
:1007C00000180140001C01400020014000000140D1
:1007D00000002042DC002042DD48006840F00100BB
:1007E000DB49086008464068DA490840D849486053
:1007F00008460068D8490840D5490860084600689E
:1008000020F4802008600846406820F4FE0048601C
:100810004FF41F0088607047CD49096821F480318A
:10082000CB4A11601146096821F480211160B0F5AE
:10083000803F03D0B0F5802F0ED106E0C44909688F
:1008400041F48031C24A116007E0C149096841F4AE
:10085000A021BF4A116000E000BF00BF704710B583
:1008600001460022002300204A11012A02D1B84C7F
:10087000236806E0022A02D1B54C236A01E0B44C99
:10088000636A01F01F02012494401C4201D0012040
:1008900000E0002010BD38B50020009000240025A5
:1008A00000BF3120FFF7DBFF05460098401C009099
:1008B0000098B0F5A06F01D0002DF2D03120FFF7E5
:1008C000CEFF08B1012400E00024204638BD0146D7
:1008D00000209F4A106820F0F80040EAC100106034
:1008E00070479E490860704702460020984B586840
:1008F00020F47C1042EA01031843954B586070477E
:1009000096490866704701460020914A506820F0D9
:1009100003000843506070478D48406800F00C00A9
:100920007047014600208A4A506820F0F0000843D2
:100930005060704701460020854A506820F4E0600E
:1009400008435060704701460020814A506820F4F7
:10095000605040EAC1005060704729B17C4A527A29
:1009600002437B4B5A7204E0794A527A8243784BB5
:100970005A7270477A490860704701460020744AED
:10098000506820F440400843506070470021754A89
:1009900011706F4A82F82010012802D0042808D173
:1009A00003E001216F4A117004E005216D4A1170C6
:1009B00000E000BF00BF70476B49086070476449A2
:1009C000096A0143624A1162704767494439086005
:1009D000704730B500210022002400235C4D6D6873
:1009E00005F00C0121B1042905D0082923D105E027
:1009F0005E4D056022E05D4D05601FE0544D6D6861
:100A000005F47012524D6D6805F48034022505EB33
:100A100092421CB9564D554305600BE04C4D6D6834
:100A200015F4003F03D0524D5543056002E04F4D91
:100A30005543056002E04D4D056000BF00BF444DC9
:100A40006D6805F0F00109094A4D6B5C0568DD40F1
:100A500045603F4D6D6805F4E061090A454D6B5CEA
:100A60004568DD4085603A4D6D6805F46051C90AFE
:100A7000404D6B5C4568DD40C560354D6D6805F4E3
:100A80004041890B3C4D6B5CC568B5FBF3F50561D6
:100A900030BD29B12E4A526902432D4B5A6104E000
:100AA0002B4A526982432A4B5A61704729B1284A1E
:100AB00092690243264B9A6104E0254A9269824377
:100AC000234B9A61704729B1214AD2690243204BD6
:100AD000DA6104E01E4AD26982431D4BDA61704735
:100AE00029B11B4AD2680243194BDA6004E0184A64
:100AF000D2688243164BDA60704729B1144A1269F2
:100B00000243134B1A6104E0114A12698243104BED
:100B10001A61704714494039086070470F49C8642A
:100B200070470B49C87170470948406A40F08070AF
:100B300007494862704701460020054A92680A4208
:100B400001D0012000E00020704701498872704701
:100B5000001002400000FFF8FFFFF6FE00004242D6
:100B6000D8004242201002408004424200127A0023
:100B700000093D00140000202400002010B50446A8
:100B8000FB48844209D101218803FFF7A9FF002116
:100B90004FF48040FFF7A4FF32E0F648844209D1C9
:100BA00001214804FFF7A9FF00214FF40030FFF7AF
:100BB000A4FF25E0F048844209D101218804FFF711
:100BC0009CFF00214FF48020FFF797FF18E0EB48CF
:100BD000844209D10121C804FFF78FFF00214FF49F
:100BE0000020FFF78AFF0BE0E548844208D101218D
:100BF0000805FFF782FF00214FF48010FFF77DFF0B
:100C000010BD2DE9F04786B005460E460024A246E9
:100C100000BFA1460027B08900B100BF2F462C8A33
:100C20004CF6FF700440F08804432C82AC894EF6E9
:100C3000F3100440B08831890843718908430443A4
:100C4000AC81AC8A4FF6FF400440B0890443AC82CB
:100C500001A8FFF7BEFEC648874202D1DDF810A00A
:100C600001E0DDF80CA0A88910F4004F08D00AEBD1
:100C7000CA0000EB0A1031684900B0FBF1F807E048
:100C80000AEBCA0000EB0A1031688900B0FBF1F8EA
:100C90006420B8FBF0F004012009642101FB1089F5
:100CA000A88910F4004F08D0322000EBC900B0FB37
:100CB000F1F000F00700044308E0322000EB0910D7
:100CC0006421B0FBF1F000F00F0004432C8106B06A
:100CD000BDE8F0874FF41651016000218180C1808A
:100CE00001810C21418100218181704710B50246AC
:100CF0000020108A4FF2FF0318400B884C882343D2
:100D00008C882343CC8823431843108210BD0021D4
:100D1000018041808180C180704721B1828942F485
:100D20000052828104E082894DF6FF731A4082816D
:100D30007047F0B503460024002600250020A1F5E9
:100D400010676A3F00D100BF1846C1F3421401F09A
:100D50001F06012707FA06F5012C01D10C3004E02B
:100D6000022C01D1103000E014301AB107682F4373
:100D7000076002E00768AF430760F0BD1AB1838ADD
:100D80000B43838202E0838A8B4383827047028A0B
:100D90004FF6F0731A400282028A0A4302827047B9
:100DA00082894FF2FF731A40828182890A438281CD
:100DB000704721B1828942F00202828104E0828977
:100DC0004FF6FD731A4082817047028A4FF6DF7337
:100DD0001A400282028A0A430282704721B1028AC3
:100DE00042F48042028204E0028A4BF6FF731A400A
:100DF00002827047C1F308028280704701468888EA
:100E0000C0F308007047818941F00101818170477A
:100E1000028BD2B20283028B42EA01220283704724
:100E2000028B02F47F420283028B0A4302837047E3
:100E300021B1828A42F02002828204E0828A4FF647
:100E4000DF731A408282704721B1828A42F0100219
:100E5000828204E0828A4FF6EF731A4082827047E2
:100E600021B1828A42F00802828204E0828A4FF62F
:100E7000F7731A408282704721B1828942F400429E
:100E8000828103E08289C2F30E028281704721B120
:100E9000828A42F40062828204E0828A4FF2FF7307
:100EA0001A4082827047828A4FF6FB731A40828210
:100EB000828A0A438282704721B1828A42F002020A
:100EC000828204E0828A4FF6FD731A408282704764
:100ED00002460020B1F5007F00D100BF13880B420D
:100EE00001D0012000E00020704701F40072B2F54B
:100EF000007F00D100BFCA430280704770B5024630
:100F00000024002300250020A1F510666A3E00D1D0
:100F100000BFC1F3421501F01F03012606FA03F3D7
:100F2000012D02D19689334006E0022D02D1168AA6
:100F3000334001E0968A33400C12012606FA04F48D
:100F40001688344013B10CB1012000E0002070BDC0
:100F500010B500220023A1F510646A3C00D100BF47
:100F60000A1201249440A3B2DC43048010BD0000A7
:100F7000003801400044004000480040004C004060
:100F80000050004010B50446FE48844208D10121BB
:100F9000C014FFF7A5FD0021E014FFF7A1FDC4E098
:100FA000B4F1804F08D101210846FFF7A6FD0021CA
:100FB0000120FFF7A2FDB8E0F348844208D10121E7
:100FC0000220FFF79AFD00210220FFF796FDACE01A
:100FD000EE48844208D101210420FFF78EFD002154
:100FE0000420FFF78AFDA0E0E948844208D10121EE
:100FF0000820FFF782FD00210820FFF77EFD94E026
:10100000E448844208D101211020FFF776FD002139
:101010001020FFF772FD88E0DF48844208D10121EB
:101020002020FFF76AFD00212020FFF766FD7CE00D
:10103000DA48844208D101214014FFF751FD002114
:101040006014FFF74DFD70E0D548844209D10121BD
:10105000C804FFF745FD00214FF40020FFF740FDD5
:1010600063E0D048844209D101210805FFF738FD2B
:1010700000214FF48010FFF733FD56E0CA48844248
:1010800009D101214805FFF72BFD00214FF4001085
:10109000FFF726FD49E0C548844208D101214020E0
:1010A000FFF72BFD00214020FFF727FD3DE0C04862
:1010B000844208D101218020FFF71FFD00218020FC
:1010C000FFF71BFD31E0BB48844208D101218015A8
:1010D000FFF713FD0021A015FFF70FFD25E0B6482F
:1010E000844209D101210804FFF7FAFC00214FF4E2
:1010F0008030FFF7F5FC18E0B048844209D10121A7
:101100004804FFF7EDFC00214FF40030FFF7E8FC46
:101110000BE0AB48844208D101218804FFF7E0FCD2
:1011200000214FF48020FFF7DBFC10BD0022028875
:10113000944B98420ED0994B98420BD0B0F1804F0F
:1011400008D0914B984205D0904B984202D0904BDA
:10115000984204D14FF68F731A404B881A438D4B37
:10116000984207D08C4B984204D04FF6FF431A4068
:10117000CB881A4302808B8883850B880385814B3B
:1011800098420BD0854B984208D08B4B984205D0A3
:101190008A4B984202D08A4B984201D10B7A03863F
:1011A00001238382704770B5002400220023058C40
:1011B0004FF6FE7635400584028C8388048B4FF60B
:1011C0008F752C40B51E2C400D882C43751E2A406F
:1011D0000D892A434D882A436A4DA8420BD06F4D92
:1011E000A84208D0744DA84205D0744DA84202D040
:1011F000734DA84213D14FF6F7752A404D892A4303
:101200004FF6FB752A408D882A434FF6FF652B4029
:101210004FF6FF552B408D892B43CD892B4383807F
:101220000483CD888586028470BD70B500240022B9
:101230000023058C4FF6EF7635400584028C8388B9
:10124000048B48F6FF752C404FF6FF452C400D8867
:101250004FF6FF7606EA05252C434FF6DF752A4048
:101260000D8906EA05152A434D8806EA05152A4325
:10127000444DA84202D0494DA8421DD14FF67F757A
:101280002A404D894FF6FF7606EA05152A434FF6A8
:10129000BF752A408D8806EA05152A434FF6FF35AB
:1012A0002B404FF2FF752B408D8906EA85052B43B5
:1012B000CD8906EA85052B4383800483CD88058785
:1012C000028470BD70B5002400220023058C4FF607
:1012D000FF6635400584028C8388848B4FF68F75BA
:1012E0002C404FF6FC752C400D882C434FF6FF55D3
:1012F0002A400D894FF6FF7606EA05252A434D88D8
:1013000006EA05252A431F4DA84202D0234DA842D4
:101310001DD14FF2FF752A404D894FF6FF7606EA40
:1013200005252A434FF6FF352A408D8806EA052514
:101330002A434EF6FF752B404DF6FF752B408D89E5
:1013400006EA05152B43CD8906EA05152B43838054
:101350008483CD888587028470BD70B50022002308
:101360000024058C4EF6FF7635400584038C848876
:10137000828B48F6FF752A404FF6FF452A400D88BC
:1013800020E00000002C0140000400400008004064
:10139000000C0040001000400014004000340140E8
:1013A000004C014000500140005401400018004032
:1013B000001C00400020004000400140004401406B
:1013C000004801404FF6FF7606EA05252A434DF610
:1013D000FF752B400D8906EA05352B434D8806EA3B
:1013E00005352B43FA4DA84202D0FA4DA84208D148
:1013F0004BF6FF752C408D894FF6FF7606EA851572
:101400002C4384808283CD88A0F84050038470BD33
:10141000828B4FF2FF331A408283828B4FF6FF7329
:1014200003EA01231A4382837047F0B50C46154640
:10143000002200210026078C4EF6FF7C07EA0C07ED
:101440000784828B018C4FF6FF7707EA043640F65B
:10145000FF473A404FF6FF7707EA05273A434FF632
:10146000FF7707EA03373A43D94FB8420ED0D94F36
:10147000B8420BD0B0F1804F08D0D74FB84205D05A
:10148000D64FB84202D0D64FB84206D14DF6FF77BC
:10149000394046F48057394305E047F6FF57394055
:1014A00044F48057394382830184F0BD828B4FF628
:1014B000F3731A408283828B0A4382837047F0B5AC
:1014C0000C461546002200210026078C4FF6FF6CC3
:1014D00007EA0C070784828B018C4FF6FF7707EA37
:1014E00004264FF60C773A404FF6FF7707EA0317CA
:1014F0002F433A43B64FB8420ED0B64FB8420BD046
:10150000B0F1804F08D0B44FB84205D0B34FB842C5
:1015100002D0B34FB84206D14FF6FF57394046F4D8
:101520008077394305E04FF2FF57394044F4807724
:10153000394382830184F0BD028B4FF2FF331A409E
:101540000283028B4FF6FF7303EA01231A430283DF
:101550007047F0B50C461546002200210026078C86
:101560004FF6EF7C07EA0C070784028B018C4FF6DD
:10157000FF7707EA041640F6FF473A404FF6FF7739
:1015800007EA03373A434FF6FF7707EA05273A435E
:101590008F4FB8420ED08F4FB8420BD0B0F1804F72
:1015A00008D08D4FB84205D08C4FB84202D08C4F36
:1015B000B84206D14FF6DF77394046F0100739437D
:1015C00005E04FF65F77394044F010073943028356
:1015D0000184F0BD028B4FF6F3731A400283028B35
:1015E0000A4302837047F0B50C46154600220021DD
:1015F000068C4FF6FE773E400684028B018C4FF638
:101600000C7632407E1C06EA03162E433243704E9F
:10161000B0420ED06F4EB0420BD0B0F1804F08D028
:101620006D4EB04205D06D4EB04202D06C4EB0420D
:1016300006D14FF6FD76314044F00106314305E016
:101640004FF6F576314044F00106314302830184C0
:10165000F0BD70B505460C465D4885420ED05D482C
:1016600085420BD0B5F1804F08D05B48854205D04C
:101670005A48854202D05A48854200D100E000BF56
:10168000208850B92389A28861882846FFF7ABFFDC
:10169000E1882846FFF79EFF25E0208804280AD12C
:1016A0002389A28861882846FFF753FFE1882846EE
:1016B000FFF742FF17E0208808280AD12389A28873
:1016C00061882846FFF7FBFEE1882846FFF7EEFE1B
:1016D00009E02389A28861882846FFF7A6FEE188F1
:1016E0002846FFF795FE70BD2DE9F04105460C46F2
:1016F00000260127608808B9022600E00026A0889D
:10170000012801D1022700E001272088A0B9238900
:10171000A28861882846FFF766FFE1882846FFF720
:1017200059FF23893A4631462846FFF712FFE188E0
:101730002846FFF701FF13E02389A2886188284625
:10174000FFF707FFE1882846FFF7F6FE23893A46B0
:1017500031462846FFF747FFE1882846FFF73AFF62
:10176000BDE8F0810A884B881A438B881A43CB88DE
:101770001A430B891A434B891A438B891A43A0F8E1
:10178000442070474FF6FF71818000210180C180A5
:101790004180017270470021018041808180C180B9
:1017A000018141818181C181704700210180418097
:1017B000012181800021C1800181704700210180C9
:1017C00041808180C1800181418181817047000019
:1017D000002C01400034014000040040000800409B
:1017E000000C004021B1028842F00102028004E0B6
:1017F00002884FF6FE731A400280704731B1B0F88C
:10180000442042F40042A0F8442005E0B0F844200F
:10181000C2F30E02A0F8442070471AB183890B432B
:10182000838102E083898B43838170478182704783
:1018300041EA0203A0F8483070471AB183890B438C
:10184000838102E083898B438381704701894FF64E
:10185000F8721140018170470A46002101894FF654
:101860008F73194011430181704730B504460D460E
:1018700029462046FFF7F0FF208940F0070020812D
:1018800030BD2DE9F04104460D4616461F46602D39
:1018900006D13B46012231462046FFF75AFE05E0BD
:1018A0003B46012231462046FFF79DFE2946204651
:1018B000FFF7D2FF208940F007002081BDE8F081CA
:1018C00030B50C4600210189C9B24FF6FF7505EA13
:1018D0000325154325432943018130BD2DE9F041FE
:1018E00005460E4617469846002443463A4631467A
:1018F0002846FFF7E5FF2C894FF6F870044044F0C6
:1019000007044FF68F70044044F070042C81BDE84A
:10191000F081F0B504460D4616461F463B4632465A
:1019200029462046FFF7CCFF208940F480402081E3
:10193000F0BD0185828270470A46002101884FF67A
:101940008F731940114301807047F0B50C4615465E
:101950001E460021002200230189028B038C4FF6D2
:10196000F877394021434FF6FC473A4040F20117DF
:101970003A434FF6DD773B404FF6FF7707EA06170D
:101980002F433B43018102830384F0BD0A460021BB
:10199000018B4FF68F7319401143018370470A463C
:1019A0000021018B48F6FF7319404FF6FF7303EADD
:1019B00002231943018370470A460021818B4FF6A9
:1019C0008F7319401143818370470A460021818B30
:1019D00048F6FF7319404FF6FF7303EA02231943D9
:1019E0008183704721B1028842F08002028004E0C6
:1019F00002884FF67F731A400280704721B18288B7
:101A000042F00402828004E082884FF6FB731A40A1
:101A10008280704721B1828842F00802828004E00F
:101A200082884FF6F7731A408280704721B182880E
:101A300042F00102828004E082884FF6FE731A4071
:101A4000828070470A460021018B4FF6F7731940D8
:101A50001143018370470A460021018B4FF2FF7347
:101A600019404FF6FF7303EA0223194301837047BD
:101A70000A460021818B4FF6F77319401143818389
:101A800070470A460021818B4FF2FF7319404FF6D1
:101A9000FF7303EA02231943818370470A4600213A
:101AA000018B4FF6FB7319401143018370470A46BF
:101AB0000021018B4FF6FF3319404FF6FF7303EA05
:101AC00002231943018370470A460021818B4FF698
:101AD000FB7319401143818370470A460021818BB3
:101AE0004FF6FF3319404FF6FF7303EA0223194301
:101AF000818370470A460021018B4FF67F7319409E
:101B00001143018370470A460021018BC1F30E0186
:101B10004FF6FF7303EA02231943018370470A4615
:101B20000021818B4FF67F731940114381837047E9
:101B30000A460021818BC1F30E014FF6FF7303EAC1
:101B400002231943818370470A460021018C4FF616
:101B5000FD7319401143018470470A460021018C2E
:101B60004FF6F77319401143018470470A4600216C
:101B7000018C4FF6DF7319404FF6FF7303EA02132F
:101B80001943018470470A460021018C4FF67F7388
:101B900019404FF6FF7303EA02131943018470479B
:101BA0000A460021018C4FF6FF5319404FF6FF7390
:101BB00003EA02231943018470470A460021018C7D
:101BC0004FF2FF7319404FF6FF7303EA02231943E4
:101BD000018470470A460021018C4DF6FF731940BD
:101BE0004FF6FF7303EA023319430184704730B59F
:101BF000002301248C40A3B2048C9C430484048CF5
:101C000002FA01F5ADB22C43048430BD30B5002397
:101C100004248C40A3B2048C9C430484048C02FAF8
:101C200001F5ADB22C43048430BD70B503460020ED
:101C300000241846183001258D40ACB21D8CA543F8
:101C40001D8409B1082909D100EB6100056825F060
:101C5000700505600568154305600EE00D1FC5F3AE
:101C60004E052844056825F4E045056005684FF6F3
:101C7000FF7606EA02263543056070BD21B1028871
:101C800042F00202028004E002884FF6FD731A401F
:101C90000280704721B1028842F00402028004E011
:101CA00002884FF6FB731A400280704721B1828888
:101CB00042F08002828004E082884FF67F731A40EF
:101CC0008280704702884FF6F7731A4002800288BC
:101CD0000A430280704782884FF68F731A408280D1
:101CE00082880A438280704702894FF6F8731A404F
:101CF000028102890A430281704702894FF67F738D
:101D00001A40028102890A43028170478184704728
:101D1000818570478186704701877047818770474A
:101D2000A0F84010704702884FF6FF431A40028027
:101D300002880A43028070470146888E7047014638
:101D4000088F70470146888F70470146B1F8400000
:101D500070470146888C70470146088D70470246DF
:101D60000020138A0B4201D0012000E000207047C0
:101D7000CA430282704730B5024600200023002487
:101D8000158A05EA0103958905EA010413B10CB12E
:101D9000012000E0002030BDCA43028270470000ED
:101DA00010B50446FA48844208D101214015FEF7D7
:101DB00097FE00216015FEF793FE17E0F548844278
:101DC00008D101210015FEF78BFE00212015FEF73A
:101DD00087FE0BE0F048844208D10121C803FEF7DA
:101DE0007FFE00214FF40040FEF77AFE10BD30B5B3
:101DF0000246002000235068E84C20400D790C6812
:101E000044EA0524204350609068E54C2040D1E925
:101E100002542C434D7944EA450420439060D06A33
:101E200020F470000C7C641EE4B2234340EA0350AB
:101E3000D06230BD00210160017141718160C160DB
:101E400001210174704721B1826842F00102826071
:101E500003E0826822F001028260704721B182684B
:101E600042F48072826003E0826822F480728260B1
:101E7000704710B50023CBB21AB144681C434460CC
:101E800002E044689C43446010BD816841F0080151
:101E900081607047014600208A6812F0080F01D067
:101EA000012000E000207047816841F0040181605A
:101EB0007047014600208A6812F0040F01D001200B
:101EC00000E00020704721B1826842F4A0028260E5
:101ED00003E0826822F4A00282607047014600207D
:101EE0008A6812F4800F01D0012000E000207047C2
:101EF00010B50A4600210023416821F46041531EB9
:101F000041EA4331416010BD21B1426842F40062B0
:101F1000426003E0426822F4006242607047F0B51C
:101F200004460D4600200021092D11DDE068A5F1D1
:101F30000A0606EB4607072606FA07F18843A5F1CD
:101F40000A0606EB460603FA06F10843E0600CE0D9
:101F5000206905EB4507072606FA07F1884305EBDC
:101F6000450603FA06F108432061072A0FDA606B81
:101F7000561E06EB86071F2606FA07F18843561EF3
:101F800006EB860605FA06F10843606322E00D2A97
:101F90000FDA206BD61F06EB86071F2606FA07F11D
:101FA0008843D61F06EB860605FA06F10843206330
:101FB00010E0E06AA2F10D0606EB86071F2606FA7E
:101FC00007F18843A2F10D0606EB860605FA06F135
:101FD0000843E062F0BD21B1826842F48012826061
:101FE00003E0826822F48012826070470146C86C68
:101FF00080B2704766484C300068704721B1426833
:1020000042F48062426003E0426822F480624260EF
:10201000704721B1426842F48052426003E0426856
:1020200022F48052426070470A460021816821F400
:10203000E04111438160704721B1826842F400425F
:10204000826003E0826822F400428260704721B11E
:10205000826842F40212826003E0826822F4021273
:1020600082607047014600208A6812F4001F01D088
:10207000012000E000207047F0B50446154600201E
:1020800000220026092911DDE068A1F10A0707EB0B
:10209000470C072707FA0CF29043A1F10A0707EB58
:1020A000470703FA07F21043E0600CE0206901EBF8
:1020B000410C072707FA0CF2904301EB410703FAA2
:1020C00007F210432061A06BC0F30156EF1C06F12C
:1020D000010CA7EB0C0707EB870C1F2707FA0CF284
:1020E0009043EF1C06F1010CA7EB0C0707EB8707E9
:1020F00001FA07F21043A063F0BD10B50A460021B3
:102100000023816B21F44011531E41EA0351816386
:1021100010BD08B5002300930090009B0B44009372
:10212000009B1A6008BD08B502460020009000928E
:1021300001F12800009B184400900098006880B2CC
:1021400008BD0A4600214168164B19401143416001
:1021500070474162826270470A460021416821F05F
:102160001F0111434160704740B1094908310968B6
:1021700041F40001064A0832116007E004490831C1
:10218000096821F40001024A08321160704700001A
:102190000024014000280140003C0140FFFEF0FF08
:1021A000FDF7F1FFFFFD3FFF0246002013680B42E1
:1021B00001D0012000E000207047CA430260704750
:1021C00070B502460020002300240B125568CEB2E1
:1021D00005EA060415681D4202D00CB1012000E09A
:1021E000002070BD00220A12D34303607047000034
:1021F0007CB5002514E06946284602F012F8064630
:1022000066B9F74850F8254044B1012C06D0D4E90E
:10221000020100EB810060640198A064681CC5B2F3
:102220003F2DE8D97CBD002400BF02E0282002F049
:1022300001F9EC4800780028F8D0EB4800686421E8
:10224000B0FBF1F0E84908600846006828B90020B2
:10225000E6490870FF2002F026F800BF02F0C6F938
:102260000446E3480068E34908600020E04908604C
:10227000204602F0BFF9DF480068DB490968B0FB7F
:10228000F1F0C0F16400D949087002F00EFAFFF7CE
:10229000AFFF142002F0CEF8E0E700B587B00320CE
:1022A00000218022D44BCDE90132CDE903104FF655
:1022B000FE703E23D14A0090AFF2950001F0C6FDBA
:1022C00006AACFA13E2001F02BFF07B000BD0024DD
:1022D00000BF00BF02F08AF90446C5480068401CF0
:1022E000C3490860204602F085F902F0DDF9F1E704
:1022F00000B587B0032000218022C54BCDE9013213
:10230000CDE903104FF6FF703F23C24A0090AFF2B1
:10231000410001F09BFD06AABFA13F2001F000FF94
:1023200007B000BD04E0002200F8012B4A1E91B264
:102330000029F8D1704770B5C821BB48FFF7F2FFFC
:1023400000230FE0581C85B203EB8300B64901EB74
:10235000800405EB850001EB80060020207066609C
:10236000581C83B2092BEDD303EB8300AE4901EB7C
:1023700080040020207060600846AC49086070BD91
:1023800070B54FF47C71AA48FFF7CCFF4FF4807111
:102390009348FFF7C7FF002413E0601CC5B2C4EBED
:1023A000C40000EB4000A24901EB8003C5EBC5006F
:1023B00000EB400001EB80065E619EA0D864601CCB
:1023C000C4B20B2CE9D3C4EBC40000EB4000984925
:1023D00001EB80030020586196A0D8640020964944
:1023E000086093489549086070BD0021944A1170B7
:1023F000002004E00021934A1154411CC8B208286F
:10240000F8D30021904A1170904A1170904A1160DF
:10241000904A1160704700208F4908608F4908700A
:102420008F4908708F4908708F4908708F4908607C
:102430006F4908606F4908606B4908606949087016
:10244000704710B502F02CF9FFF7E5FFFFF7CDFF5D
:10245000FFF796FFFFF76FFF00F0FFFE01F0DBFBD9
:10246000FFF746FFFFF719FF02F01BF910BD7E488A
:102470000078012808D179480078FF2804D27748ED
:102480000078401C75490870704779496C4A127889
:10249000885C6C49095C764A515C01EBC0016B4A6F
:1024A0001170704710B500246F480078012830D1B2
:1024B00002F09CF804466948007820B1674800782B
:1024C000401E6649087065480078F8B9644800788D
:1024D000E0B9FFF7DAFF42485C49097850F821007B
:1024E0005B490860594800785749097888420DD0FF
:1024F00057480068806B401C5549096888635B48F1
:102500000068401C5949086002F08FF8204602F02C
:1025100071F810BD10B5002453480078012811D17E
:1025200002F064F804464D48007840B94C48007801
:10253000FF2804D24A480078401C494908702046C8
:1025400002F058F810BD10B5002402F04FF8044610
:1025500042480078F8B942480078E0B9FFF795FFA3
:102560001F483A49097850F821003949086037482E
:1025700000783549097888420DD035480068806B6D
:10258000401C33490968886338480068401C374953
:10259000086002F043F8204602F02CF810BD10B598
:1025A00000243148007801286FD102F01FF804465A
:1025B0002B48007880B12A480078401E28490870CE
:1025C0000846007848B92548007838B9204602F016
:1025D00011F8FFF7B8FF58E054E04FE04AE0000080
:1025E000A00500204000002038000020340000201A
:1025F000500000203C000020A00100209C0300208F
:1026000075432F4F532D49492053746174000000C6
:10261000A00300209C05002075432F4F532D4949EE
:102620002049646C65000000880000202C00002018
:10263000A00600203F00000060000020580000209D
:1026400045000020460000204300002044000020F8
:102650005C000020540000206C000020410000209D
:10266000420000204F0000204E00002028000020E3
:102670007C4E0008204601F0BDFF06E0204601F038
:10268000B9FF02E0204601F0B5FF10BD10B5F248D9
:10269000007890B9FFF7F9FEF0480078F04908702B
:1026A000F048EE49097850F82100EF4908600846E3
:1026B0000068EE49086001F0A0FF10BD10B50024CD
:1026C000022001F0B7FE01F091FF04460020E84926
:1026D0000860204601F08EFF142001F0ABFE01F0EF
:1026E00085FF0446E2480068E24908600120E249AB
:1026F0000870204601F07EFF10BD70B5002602F084
:1027000024F801F073FF0646DC480068401CDB49F2
:102710000860304601F06EFFCF480078012857D19D
:10272000D748007820B1012804D0022809D103E05D
:1027300001250BE0002509E001250120D0490870A2
:1027400004E001250020CE49087000BF00BF05B994
:1027500070BDCC48046837E001F048FF0646E06AE7
:1027600070B3E06A401EE062E06A48BB94F8300053
:1027700010F0370F09D014F8300F00F0C8002070A7
:1027800001206070A4F1300402E0002084F83100E0
:1027900094F8300010F0080F12D104F13404A0783E
:1027A000B949097840EA0100B74908702078B7496B
:1027B000085C617840EA010014F83419B34A5054B7
:1027C0006469304601F016FF94F832003F28C3D107
:1027D00000BFBDE740F223107047704710B590F876
:1027E000342001F10B039B5C90F83540A34301F1C9
:1027F0000B04A35423469B5C23B98B7A90F8364094
:10280000A3438B7210BD2DE9F04F05460F4690464D
:102810009946A87A9E490E5C05F10B00805D11F87F
:1028200000B00BEBC60000F0FF0A8E4850F82A40BB
:10283000002004F12004E0602760207C20EA0800EA
:10284000207484F81190207CA4F1200410F0080F6B
:102850000DD194F836008C49097808438A490870EC
:102860008A48805D94F83510084388498855294680
:102870002046FFF7B3FF5046BDE8F08F10B57B4A06
:102880001268D061794A126892F8343000F10B0274
:10289000D25C764B1B6893F835301A43734B1B6838
:1028A00093F8344000F10B031A55827A6F4B1B6882
:1028B00093F836301A4382726C4A126892F83410D8
:1028C000724A525C694B1B6893F835309A436F4BE0
:1028D0005A541A46525C42B9644A126892F8363029
:1028E000694A12789A43684B1A7010BD014600225B
:1028F0008A72002005E0002301F10B021354421CF0
:10290000D0B20828F7D3704705E011F8013B00F872
:10291000013B531E9AB2002AF7D1704701460020AE
:1029200002E0491C421CD0B20A78002AF9D1704753
:102930002DE9F84F05460F4690469946DDE90AAB6A
:102940000020009001F052FE009052480468002CD4
:102950007CD004F1180454F8040C4E490860009827
:1029600001F048FE44F8187CA576002020766076B9
:10297000606144F814BC44F80CAC44F8108C0C981A
:1029800024F8080C24F8069C0020E077E810207753
:1029900005F00700E076217F01208840A077E17EE6
:1029A00001208840607700206060E060A0602062C5
:1029B000A0626062E0622063AFF288306063A4F1DD
:1029C00018044FF0000606E0002104F1500040F822
:1029D0002610701CC6B2002EF6D0204601F0B4FEC0
:1029E000204601F05FFE01F001FE00901D4840F816
:1029F00025402448006860610020A06121480068EB
:102A000010B12048006884611E48046004F1340459
:102A1000A0781D49097840EA01001B490870207818
:102A20001A49085C617840EA010014F83419174A21
:102A300050541948007800F10100174908700098B7
:102A400001F0D8FD0020BDE8F88FFFE7009801F005
:102A5000D1FD4220F7E700004E0000204400002096
:102A600043000020A00500205C000020540000204E
:102A70005000002038000020400000206C000020A2
:102A80006400002060000020450000204600002077
:102A90007C4E0008580000204F0000202DE9F05F18
:102AA00004460F4691461E464FF0000B207805283D
:102AB00004D0012030700020BDE8F09F09F0800AAA
:102AC000BAF1000F04D029F080094FF0010801E0AD
:102AD0004FF000080020307001F088FD8346B9F106
:102AE000000F2CD0B9F1010F3BD0B9F1020F03D088
:102AF000B9F1030F46D111E0208900EA0705BD4274
:102B000006D1B8F1010F05D12089A843208101E049
:102B100070203070584601F06DFD3AE0208900EADF
:102B2000070535B1B8F1010F05D12089A8432081EF
:102B300001E070203070584601F05CFD29E02089EA
:102B400027EA0005BD4206D1B8F1010F05D1208961
:102B50002843208101E070203070584601F04AFD82
:102B600017E0208927EA000535B1B8F1010F05D13A
:102B700020892843208101E070203070584601F000
:102B800039FD06E0584601F035FD00256F20307014
:102B900000BF00BF28468FE72DE9F04106460D46ED
:102BA0000027FD48007820B1102028700020BDE8E3
:102BB000F08101F01BFD0746F848046884B1006805
:102BC0004068F6490860052020702681002060607A
:102BD000F3A0E060384601F00DFD0020287004E00D
:102BE000384601F007FD722028702046DFE730B537
:102BF00001464A6808682AB9CC68606028B1002597
:102C0000456002E0106000B142608B6800255D62A3
:102C100030BDF0B506460F46B468002004F1280424
:102C200060602780207A00F0DF0020724FF0000003
:102C30006072207AA4F12804A8B904F13404A078C1
:102C4000D849097840EA0100D64908702078D64969
:102C5000085C617840EA010014F83419D24A5054F3
:102C60004FF0010500E000253046FFF7C0FF284681
:102C7000F0BD2DE9F0470446894615464FF0000A9D
:102C8000C548007820B10F2028702046BDE8F087A5
:102C90002078052803D0012028702046F6E701F0AF
:102CA000A5FC8246606808B1012700E00027B9F161
:102CB000000F03D0B9F1010F3CD119E08FB9B8A0D2
:102CC000E06000202070B54800686060002020812E
:102CD000B2480460504601F08DFC002028700026A8
:102CE00005E0504601F086FC49202870264628E081
:102CF000D4F8048005E000214046FFF78AFFD8F8A9
:102D00000080B8F1000FF6D1A5A0E060002020708F
:102D1000A2480068606000202081A04804605046FE
:102D200001F068FC012F01D1FFF70DFC0020287095
:102D3000002606E0504601F05DFC0720287026467C
:102D400000BF00BF3046A1E72DE9F04105460E4621
:102D5000144600279048007820B1112020700020F0
:102D6000BDE8F08101F042FC07462878052806D02E
:102D7000384601F03FFC012020700020F0E7E868B1
:102D800030603068FFF7CAFD8046384601F032FCFB
:102D9000002020704046E3E72DE9F04105460E464D
:102DA000144600277C48007818B112202070BDE836
:102DB000F08101F01BFC07462878052805D038462D
:102DC00001F018FC01202070F1E7EE60384601F0B8
:102DD00011FC0020207000BFE9E7F0B51446059E05
:102DE000724F3F6897F8307047F02007DFF8BCC19A
:102DF000DCF800C08CF830700027DFF8B0C1DCF8D8
:102E000000C08CF83170694F3F68FE62674F3F68C1
:102E100079620C828B74654F3F688F6047680F60E2
:102E200000274F60C860456805B1696041605F4F29
:102E30003F6897F834205C4FBF5CDFF870C1DCF866
:102E400000C09CF835C027EA0C07DFF85CC10CF81D
:102E500002706746BF5C5FB9544F3F6897F836C051
:102E6000504F3F7827EA0C07DFF838C18CF8007024
:102E7000F0BD2DE9F04F89B005460F4691469A46C0
:102E8000129E002002904448007828B10220307041
:102E9000002009B0BDE8F08F4548007818B10D203A
:102EA00030700020F5E72878052803D00120307025
:102EB0000020EEE709F0800BBBF1000F04D009F011
:102EC0007F094FF0010801E04FF0000801F08EFB90
:102ED0000290B9F1000F4AD0B9F1010F78D0B9F1E1
:102EE000020F03D0B9F1030F71D120E0288900EA65
:102EF0000704BC420FD1B8F1010F02D12889A043C9
:102F000028812A4800680485029801F073FB00209C
:102F100030702046BDE74B463A4604A92846CDF816
:102F200000A0FFF75AFF029801F064FB78E02889BF
:102F300000EA07047CB1B8F1010F02D12889A0434F
:102F400028811A4800680485029801F053FB00208C
:102F5000307020469DE74B463A4604A92846CDF8F6
:102F600000A0FFF73AFF029801F044FB58E02889DF
:102F700027EA0004BC421ED1B8F1010F02D1288912
:102F800020432881094800680485029801F032FB3B
:102F90000020307020467CE74100002030000020F7
:102FA0003F000000450000204600002054000020A3
:102FB000420000200CE04B463A4604A92846CDF8D2
:102FC00000A0FFF70AFF029801F014FB28E01FE0C1
:102FD000288927EA00047CB1B8F1010F02D12889C1
:102FE00020432881B04800680485029801F002FB64
:102FF0000020307020464CE74B463A4604A928464C
:10300000CDF800A0FFF7E9FE029801F0F3FA07E01F
:10301000029801F0EFFA00246F203070204638E764
:1030200000BFFFF790FA01F0E1FA02909E480068B5
:1030300090F8310020B39C48006890F8310003906C
:1030400000209949096881F8310004A8FFF7CFFDF5
:1030500000209549096881F83000029801F0CAFA09
:1030600000240398012805D0022802D10E203070D8
:1030700003E000BF0A20307000BF00BF204608E711
:1030800089480068048DB8F1010F1ED1B9F1000F15
:103090000ED0B9F1010F0CD0B9F1020F03D0B9F184
:1030A000030F0AD100E000BF2889A04328810BE06C
:1030B00000BF28892043288106E0029801F09AFA8F
:1030C0006F2030700020E4E600BF029801F092FA11
:1030D000002030702046DCE670B5002501F086FA4D
:1030E000054671480068048D284601F083FA2046A1
:1030F00070BD2DE9FC5F0446894692461E460020BD
:1031000000902078052804D0012030700020BDE810
:10311000FC9F01F06BFA0090BAF1000F03D0BAF1F6
:10312000010F0AD104E0208920EA090020810BE088
:10313000208940EA0900208106E0009801F05AFA4F
:10314000712030700020E2E700BF4FF0000B65688F
:1031500055E0A87C40B3012838D0022802D00328CB
:1031600044D111E02089298A00EA0107288AB8425F
:1031700009D139462846FFF74CFD8046B8F1010FCA
:1031800001D14FF0010B38E02089298A00EA0107BC
:103190004FB139462846FFF73CFD8046B8F1010F94
:1031A00001D14FF0010B28E0288A218920EA01078C
:1031B000288AB84209D139462846FFF72AFD8046B9
:1031C000B8F1010F01D14FF0010B16E0288A2189D7
:1031D00020EA01074FB139462846FFF71AFD80461D
:1031E000B8F1010F01D14FF0010B06E0009801F09A
:1031F00001FA6F203070002089E700BF2D68002D94
:10320000A7D1009801F0F6F9BBF1010F01D1FFF74A
:103210009AF901F0EBF9009020890190009801F0F3
:10322000E9F900203070019871E72DE9F04104467A
:103230000D4600272078052804D0012028700020A2
:10324000BDE8F08101F0D2F907462689384601F041
:10325000D1F9002028703046F2E72DE9F0415021E5
:103260001248FFF75FF800250EE0681C86B20F4891
:1032700000EB051400EB0617002020706760AFF22A
:10328000E020E060681C85B2042DEED3074800EB17
:103290000514002020706060AFF2FC20E06003485D
:1032A00003490860BDE8F08154000020500100206F
:1032B0003000002070B5044600262078012801D097
:1032C000002070BD01F092F906466568002060603C
:1032D000304601F08FF92846F3E770B50546002621
:1032E000E348007808B1002070BD01F07FF9064680
:1032F000E0480468006820B1DE4800684068DD49A5
:103300000860304601F076F93CB1012020700020C1
:10331000208165602046FFF7E9FA2046E4E72DE9C1
:10332000F0470446884615464FF0000920780128EA
:1033300004D0012028702046BDE8F087CC480078F2
:1033400018B10F2028702046F6E701F04FF98146AA
:10335000A07A08B1012700E00027B8F1000F03D0E0
:10336000B8F1010F35D117E07FB900202070C148B6
:103370000068606000202081BE480460484601F07B
:1033800039F900202870002605E0484601F032F99E
:1033900049202870264623E005E000230222194632
:1033A0002046FFF730FAA07A0028F6D12070B14805
:1033B0000068606000202081AE480460484601F04B
:1033C00019F9012F01D1FFF7BEF80020287000265F
:1033D00006E0484601F00EF907202870264600BF97
:1033E00000BF3046A8E72DE9F04105460F461446D8
:1033F0004FF000082878012804D001202070002018
:10340000BDE8F0819A48007818B1022020700020B1
:10341000F6E79948007818B10D2020700020EFE7FA
:1034200001F0E4F880466E6846B1002068604046CE
:1034300001F0E0F8002020703046E1E78F48006896
:1034400090F8300040F002008C49096881F83000A3
:1034500000208A49096881F8310088480068C762FD
:103460002846FFF70BFA404601F0C4F8FFF76BF867
:1034700001F0BCF880468148006890F8310020B126
:1034800001280DD002280AD105E07C480068066AB0
:10349000002020700DE000260E20207009E000BF03
:1034A000294676480068FFF799F900260A2020701F
:1034B00000BF00BF00207149096881F830006F49E2
:1034C000096881F831006D490968C8616B4909686C
:1034D0000862404601F08EF8304691E72DE9F04150
:1034E00004460F4615464FF000082078012804D006
:1034F000012028700020BDE8F08101F077F88046B7
:10350000A07A18B300267FB1012F0CD107E0022367
:103510001A4600212046FFF776F9701CC6B2A07A41
:103520000028F4D108E000BF02231A4600212046FB
:10353000FFF769F9761C00BF00BF404601F05AF85A
:10354000FFF701F80E2028703046D4E7404601F01E
:1035500051F80020287000BFCDE770B504460D4635
:1035600000262078012801D0012070BD01F03EF82E
:103570000646A07A60B10023022229462046FFF7C2
:1035800042F9304601F036F8FEF7DDFF0020ECE7A7
:10359000606820B1304601F02DF81420E5E7656041
:1035A000304601F027F80020DFE72DE9F04104461E
:1035B0000E46154600272078012802D00120BDE8DC
:1035C000F08101F013F80746A07AE8B115F0010F79
:1035D0000AD005E00023022231462046FFF713F906
:1035E000A07A0028F6D105E00023022231462046C9
:1035F000FFF709F9384600F0FDFF15F0040F01D17F
:10360000FEF7A1FF0020DAE7606820B1384600F03D
:10361000F1FF1420D3E76660384600F0EBFF00208E
:10362000CDE72DE9F04704460D464FF0000920781C
:10363000012802D00120BDE8F08700F0D7FF8146C5
:10364000A07A287304F10B0705F10408002605E0B1
:1036500017F8010B08F8010B701CC6B2082EF7D33F
:1036600060682860484600F0C5FF0020E3E70000DE
:10367000410000202C0000204200002054000020C7
:103680002DE9F04106460D464FF00008307802283B
:1036900004D0012028700020BDE8F08100F0A6FFD2
:1036A00080467468E08A78B12169081D20610F683E
:1036B000E08A401EE082A1682069884201D16068EA
:1036C00020610020287002E01F202870002740465B
:1036D00000F090FF3846DFE72DE9F04106460F463F
:1036E0004FF00008F748007810B10020BDE8F081E5
:1036F00000F07CFF8046F4480568006820B1F2487D
:1037000000684068F0490860404600F073FF3DB330
:1037100000F06CFF8046ED480468C4B100680068A2
:10372000EA490860404600F065FF666006EB8700E6
:10373000A060E6602661A7820020E0820220287057
:10374000002028816C602846FFF7D0F808E0DE48AA
:1037500000686860DC480560404600F04BFF0025CB
:103760002846C3E72DE9F0470446894615464FF041
:10377000000A2078022804D0012028702046BDE8E5
:10378000F087D048007818B10F2028702046F6E75F
:1037900000F02CFF8246A07A10B14FF0010801E042
:1037A0004FF00008B9F1000F03D0B9F1010F45D176
:1037B0001FE0B8F1000F15D16668C448006830609A
:1037C000C248066000202070BF480068606000208A
:1037D0002081BD480460504600F00CFF0020287096
:1037E000002705E0504600F005FF492028702746D5
:1037F0002BE005E00023042219462046FFF703F8DA
:10380000A07A0028F6D16668B04800683060AF48FA
:10381000066000202070AC480068606000202081B5
:10382000A9480460504600F0E5FEB8F1010F01D14F
:10383000FEF789FE00202870002706E0504600F0C1
:10384000D9FE07202870274600BF00BF384696E7FC
:1038500070B50546002600F0C9FE06466C68606833
:10386000E060606820610020E082304600F0C2FE27
:10387000002070BD2DE9F0470746884615464FF0F9
:1038800000093878022804D0012028700020BDE803
:10389000F0878C48007818B1022028700020F6E7E5
:1038A0008B48007818B10D2028700020EFE700F059
:1038B0009DFE81467C68E08A98B12169081D2061DF
:1038C0000E68E08A401EE082A1682069884201D12A
:1038D00060682061484600F08DFE00202870304668
:1038E000D5E77C48006890F8300040F00400794942
:1038F000096881F8300000207649096881F83100B4
:1039000074480068C0F82C803846FEF7B7FF484678
:1039100000F070FEFEF717FE00F068FE81466D486D
:10392000006890F8310020B101280DD002280AD19A
:1039300005E068480068066A002028700DE000264F
:103940000E20287009E000BF394662480068FEF783
:1039500045FF00260A20287000BF00BF00205D49F7
:10396000096881F830005B49096881F831005949DC
:103970000968C861574909680862484600F03AFE7C
:10398000304684E72DE9F04104460F4615464FF0D6
:1039900000082078022804D0012028700020BDE80B
:1039A000F08100F023FE8046A07A18B300267FB194
:1039B000012F0CD107E00223042200212046FEF74C
:1039C00022FF701CC6B2A07A0028F4D108E000BF24
:1039D0000223042200212046FEF715FF761C00BFBB
:1039E00000BF404600F006FEFEF7ADFD0E20287039
:1039F0003046D4E7404600F0FDFD0020287000BFAF
:103A0000CDE72DE9F04105460E460027287802282B
:103A100002D00120BDE8F08100F0E8FD0746A87A59
:103A200060B10023042231462846FEF7ECFE3846FA
:103A300000F0E0FDFEF787FD0020EBE76C68E08A10
:103A4000A18A884204DB384600F0D4FD1E20E1E75D
:103A5000E168081DE0600E60E08A401CE082D4E965
:103A60000210884201D16068E060384600F0C2FD73
:103A70000020CFE72DE9F04105460E4600272878C3
:103A8000022802D00120BDE8F08100F0AFFD07461A
:103A9000A87A60B10023042231462846FEF7B3FE1F
:103AA000384600F0A7FDFEF74EFD0020EBE76C68FE
:103AB000E08AA18A88420FDB384600F09BFD1E2079
:103AC000E1E70000410000202C00002068000020F9
:103AD000420000205400002061682069884201D122
:103AE000A06820612069001F206120690660E08ACB
:103AF000401CE082384600F07DFD0020C3E72DE940
:103B0000F04105460F4616464FF000082878022877
:103B100002D00120BDE8F08100F068FD8046A87A5F
:103B2000E8B116F0010F0AD005E00023042239465F
:103B30002846FEF768FEA87A0028F6D105E00023A3
:103B4000042239462846FEF75EFE404600F052FD4C
:103B500016F0040F01D1FEF7F6FC0020DAE76C68DE
:103B6000E08AA18A884204DB404600F043FD1E2023
:103B7000D0E716F0020F0BD061682069884201D1AE
:103B8000A06820612069001F20612069076009E0AA
:103B9000E168081DE0600F60D4E90210884201D19D
:103BA0006068E060E08A401CE082404600F022FD50
:103BB0000020AFE72DE9F04705460C464FF0000A1C
:103BC0002878022802D00120BDE8F08700F00EFD21
:103BD0008246A87A207405F10B0804F10809002731
:103BE00005E018F8010B09F8010B781CC7B2082F83
:103BF000F7D36E68F08A18B130690068206001E080
:103C000000202060F08AA080B08AE080504600F05A
:103C1000F1FC0020D8E72DE9F04178211048FEF7AB
:103C200081FB00240DE0601C86B204EB44000C49CB
:103C300001EBC00506EB460001EBC0072F60601CDE
:103C400084B2042CEFD304EB4400054901EBC0051A
:103C500000202860084603490860BDE8F0810000A4
:103C6000900A0020680000202DE9FF5F8146884609
:103C70000020009000F0BAFC0090FA4850F82800AC
:103C800030B1009800F0B6FC282004B0BDE8F09FE9
:103C9000B9F1FF0F03D1F448006890F83290F14871
:103CA00050F8294024B9009800F0A4FC2920ECE742
:103CB000012C04D1009800F09DFC4320E5E74FEA79
:103CC000E80708F0070003900120B84000F0FF0A61
:103CD00001210398814001F0FF0B0020E14941F8E8
:103CE0002900084640F8284014F8346FA078029064
:103CF0006078A4F134040190DC48815D01980142B0
:103D00001AD0DA48805D01998843D8498855084619
:103D1000805D28B9D648007802998843D449087054
:103D2000D348007840EA0A00D1490870CF48C05D06
:103D300040EA0B00CD49C855E569D5B105F10B0046
:103D4000805D0199884305F10B0188550846805D27
:103D500018B9A87A02998843A872A87A40EA0A009A
:103D6000A87205F10B00C05D40EA0B0005F10B01E4
:103D7000C85584F8328084F83470039884F833008E
:103D800084F836A084F835B0009800F033FCB948C8
:103D90000078012801D1FEF7D6FB002075E72DE958
:103DA000FE4F06460F4690461C464FF0000900F0B5
:103DB0001DFC8146B048007828B1484600F01AFC46
:103DC0003C20BDE8FE8FA74850F8240060BB0120CE
:103DD000A44941F82400484600F00CFC0023424668
:103DE0003946304600F062FC824600200090019087
:103DF00003460246514602902046FEF799FD0546CD
:103E000035B99C48007801280CD1FEF79CFB09E0ED
:103E100000F0ECFB81460020924941F8240048461E
:103E200000F0E8FB2846CCE7484600F0E3FB2820FA
:103E3000C7E712F0010F08D012F0020F05D002E020
:103E4000491E002308C00029FAD170472DE9F04F20
:103E500085B081468A4693461C46DDE90F78129D5F
:103E60000020039000F0C2FB03908348007830B13B
:103E7000039800F0BFFB3C2005B0BDE8F08F794807
:103E800050F8240088BB0120764941F824000398AB
:103E900000F0B0FB2A4641463846FFF7CAFF2B46E2
:103EA0005A465146484600F001FC04901198CDE96D
:103EB000008002953A4620460E9B0499FEF738FD95
:103EC000064636B96B48007801280CD1FEF73BFB5B
:103ED00009E000F08BFB03900020624941F82400C8
:103EE000039800F087FB3046C6E7FFE7039800F031
:103EF00081FB2820C0E72DE9F041054600275E48F8
:103F0000007810B14020BDE8F0813F2D01D13E2066
:103F1000F9E700F06BFB0746FF2D03D1524800681C
:103F200090F832504F4850F8254024B9384600F0F8
:103F300061FB4320E7E7012C04D1384600F05AFB2F
:103F40003D20E0E714F8340F4849085C6178884365
:103F50002178464A505414F834091146085C30B9A7
:103F600094F8361042480078884341490870E06967
:103F700018B12046E169FEF731FC666A16B1304699
:103F8000FEF735FE0020E06284F8300084F831004E
:103F90003A480078FF2804D238480078401C374956
:103FA0000870384600F026FBFEF717FC00F01EFBF9
:103FB00007463248007820B130480078401E2F492B
:103FC0000870204600F06FFB2D480078401E2C49F9
:103FD00008700020234941F82500A06930B900206D
:103FE0006169886127496069086005E0D4E90501D5
:103FF0004861D4E90510886123480068606122485F
:10400000046022A0E064384600F0F4FA1948007811
:10401000012801D1FEF797FA002074E72DE9F0415D
:10402000044600273F2C02D13E20BDE8F081FF2C42
:104030000BD100F0DBFA07460B48006890F83760B8
:10404000384600F0D7FA3046EFE700F0CFFA0746DF
:10405000044850F82450DDB9384600F0CBFA43202C
:10406000E3E70000A00500205400002046000020E7
:10407000450000204E0000204100002042000020AA
:104080004F00002060000020580000203F0000008A
:10409000012D04D1384600F0ADFA3D20C5E73F20A0
:1040A00085F83700384600F0A5FA0020BDE72DE975
:1040B000F04706460F4614464FF00008D7480078F0
:1040C00020B1112020700020BDE8F08700F08EFAAA
:1040D0008046FF2E03D1D248006890F83260D14864
:1040E00050F8265035B9404600F084FA432020703D
:1040F0000020E9E7012D06D1404600F07BFA43207D
:1041000020700020E0E7E86C38603868FEF706FCB5
:104110008146404600F06EFA002020704846D3E702
:104120002DE9F04106460F4614464FF00008BB4803
:10413000007818B112202070BDE8F08100F056FA26
:104140008046FF2E03D1B648006890F83260B5482B
:1041500050F826502DB9404600F04CFA432020700C
:10416000EAE7012D05D1404600F044FA43202070D3
:10417000E2E7EF64404600F03DFA0020207000BF07
:10418000DAE770B50546002600F030FA0646A54885
:1041900050F8254024B9304600F02CFA462070BD76
:1041A000012C04D1304600F025FA4320F7E794F8BB
:1041B000300010F0080F2FD014F8300F00F0F70087
:1041C000207014F8300910BBE06AE0B904F134043F
:1041D000A0789549097840EA010093490870207851
:1041E0009249085C617840EA010014F834198F4A5A
:1041F0005054304600F0FEF98D480078012809D16E
:10420000FEF7A1F906E0304600F0F4F902E030468E
:1042100000F0F0F90020C2E7304600F0EBF944204E
:10422000BDE72DE9F04707460D464FF0000A002094
:104230002860686000F0DAF98246FF2F03D17848E1
:10424000006890F83270774850F827402CB95046F3
:1042500000F0D0F94320BDE8F087012C04D150468E
:1042600000F0C8F94320F6E7207C10F0010F04D1DC
:10427000504600F0BFF94520EDE70026D4F80C9039
:10428000D4F80880504600F0B5F900E0761C58F8E4
:10429000041B0029FAD0B0002860A9EB06008000BA
:1042A00068600020D7E72DE9F04105464FF000088F
:1042B00000F09CF98046FF2D05D15948006890F820
:1042C0003250012608E05648006890F83200A842B3
:1042D00001D1012600E00026524850F825402CB9B3
:1042E000404600F087F94820BDE8F081012C04D158
:1042F000404600F07FF94320F6E794F834704B48CD
:10430000C05D94F8351088434849C8550846C05DDB
:1043100030B994F836104448007888434249087010
:1043200094F8300040F0080084F83000404600F077
:1043300061F9012E01D1FEF706F90020D4E72DE93D
:10434000F04105460E46002700F050F90746FF2DC4
:1043500003D13348006890F83250324850F8254075
:104360002CB9384600F046F92920BDE8F081012C2F
:1043700004D1384600F03EF94320F6E754222146A6
:104380003046FEF7C1FA384600F034F90020ECE779
:104390002DE9F04704460E4617464FF0000900F09D
:1043A00025F98146FF2C02D11D48056802E01D4811
:1043B00050F8245005F1500050F82680484600F08F
:1043C00019F9002038704046BDE8F0872DE9F04724
:1043D00004460E46174698464FF0000900F006F9CD
:1043E0008146FF2C02D10E48056802E00D4850F8C6
:1043F000245005F1500040F82670484600F0FAF8C5
:10440000002088F80000BDE8F08710B50448006877
:1044100000F09CF9FF20FFF76EFD10BD4100002069
:1044200054000020A0050020450000204600002088
:104430004E00002070B5054600266548007800B1A2
:1044400070BD6448007800B1FAE71DB300F0CEF803
:1044500006466148006890F834406048005D5E4957
:10446000096891F8351088435C4908550846005D95
:1044700040B95948006890F8361059480078884388
:104480005749087054480068C562304600F0B2F8D9
:10449000FEF759F800BFD3E72DE9F04104460D4679
:1044A00016461F464A48007810B15520BDE8F081F5
:1044B0004848007808B13220F8E7B81CC8214843C2
:1044C0004FF47A71B0FBF1F14FF461606043C5EBDA
:1044D000051200EB8200304400EBC00202EB00103A
:1044E00001EBC0084046FFF7A5FF0020DEE770B5EE
:1044F000054600263F2D01D32A2070BD00F076F836
:104500000646384850F8254024B9304600F072F885
:104510004320F2E7012C04D1304600F06BF8432031
:10452000EBE7E06A20B9304600F064F85020E4E799
:104530000020E06294F8300010F0370F09D014F832
:10454000300F20F03700207001206070A4F130049B
:1045500002E0002084F8310094F8300010F0080FD9
:1045600018D104F13404A0781D49097840EA01000B
:104570001B49087020781949085C617840EA0100FD
:1045800014F83419154A5054304600F033F8FDF74A
:10459000DAFF02E0304600F02DF80020ADE770B5FC
:1045A000002500F023F805460F480468284600F06F
:1045B00021F8204670BD70B50446002500F016F8BD
:1045C000054609480460284600F014F870BD000054
:1045D000410000204200002054000020460000203E
:1045E00045000020A00500206C000020EFF31080A3
:1045F00072B6704780F310887047204C204D2560BC
:104600004FF0000484F309881E4C4FF0010525701B
:104610001D4C4FF08055256062B6FEE730B41A4C51
:104620004FF08055256030BC704730B4164C4FF0C9
:104630008055256030BC704700BF72B6EFF309802B
:1046400028B1203880E8F00F10490968086000B5EB
:104650000F4880475DF804EB0E480F490A78027056
:104660000A480E490A680260106890E8F00F20308E
:1046700080F309884EF0040E62B6704720ED00E02A
:104680000000FFFF4E00002004ED00E05400002079
:104690004747000843000020440000205C00002041
:1046A00070477047704770477047704770B5044651
:1046B00010464FF080750560051F28462C606FF08E
:1046C0000106051F28462E604FF01236051F2846AA
:1046D0002E604FF00336051F28462E604FF002363D
:1046E000051F28462E607610051F28462E60051FE0
:1046F000284629604FF01136051F28462E604FF0DE
:104700001036051F28462E604FF00936051F284633
:104710002E604FF00836051F28462E604FF00736F2
:10472000051F28462E604FF00636051F28462E60CE
:104730004FF00536051F28462E604FF00436051F42
:1047400028462E6070BD7047704770477047000064
:1047500000250CE0DC48FDF7FCFAC4B2611BC8B2CE
:1047600000F05AFA25460A20FFF764FE00BFF1E781
:104770000EB50020029001212420FCF797F9482073
:104780008DF807004FF48070ADF8040003208DF819
:10479000060001A9CD48FBF7D3FE48208DF80300A1
:1047A0000820ADF8000003208DF802006946C848D3
:1047B000FBF7C6FE40E030E04FF48071C348FBF7E2
:1047C00050FF30B1C3480078C24908700020029001
:1047D00009E0C0480078C0F10F00BE4908700846E3
:1047E000007802901AE00821B948FBF73AFF30B18F
:1047F000B9480078B8490870002002900DE0B6482A
:104800000078062190FBF1F201FB1200401CB24936
:10481000087008460078029000E0CDE700BF9DF8E0
:104820000800002805DD012202A9AC480068FEF757
:10483000BCFE6420FFF7FEFDBDE7002400F03AFA5D
:1048400039E04FF6FF74A3480078072802D144F4FA
:10485000806401E044F400749F480078012802D18C
:1048600044F4807421E09C480078022802D144F08E
:1048700080041AE098480078032802D144F04004EC
:1048800013E095480078042802D144F020040CE09D
:1048900091480078052802D144F0100405E08E48C4
:1048A0000078062801D144F00804204600F016FAEA
:1048B0000120FFF7BFFDC4E730B585B06846FCF7BF
:1048C00088F8C8220098B0FBF2F1481EB0F1807F52
:1048D00000D319E0481E4FF0E022506150170F221C
:1048E000002806DA13017E4C00F00F052D1F6355DA
:1048F00002E013017B4C235400BF00204FF0E02264
:1049000090610720106100BF05B030BD1FB50121C7
:104910000420FCF7D8F86C48FCF734FB4FF6FF7026
:10492000ADF808000020ADF80400ADF80A00ADF8BD
:10493000060001A96448FCF7F9FB00234FF400428C
:1049400019466148FCF7CAFF012240215E48FCF786
:1049500064FF1E208DF8000001208DF80300002068
:104960008DF801008DF802006846FBF720FD01215B
:104970005548FCF737FF1FBD00B589B00121084637
:10498000FCF7A1F806A8FCF7FDFE0020ADF81A0020
:1049900040F2FF30ADF81C00C720ADF8180006A9A2
:1049A0004FF08040FCF7C2FB02A8FCF7F4FE602049
:1049B000ADF808000020ADF810000120ADF80A00A5
:1049C0000020ADF80E0002A94FF08040FCF7EBFB91
:1049D00002A94FF08040FCF728FC01218807FDF771
:1049E000C7F9012211469007FCF717FF1C208DF82C
:1049F000040001208DF8070000208DF805008DF8D7
:104A0000060001A8FBF7D3FC01218807FCF7EAFEAA
:104A100009B000BD08B501210420FCF747F81820B3
:104A20008DF803000320ADF800008DF80200694600
:104A30002648FBF785FD08BD10B5FFF7EBFFFFF734
:104A40009BFFFFF763FF00F014F900F099F9FFF7FF
:104A500033FFFDF7F6FC0523234A00212348FFF727
:104A60009EF90623224A00212248FFF798F90723DE
:104A7000214A00212148FFF792F9FDF707FE0020A7
:104A800010BD08B501210420FCF710F810208DF8A6
:104A900003004FF6FF70ADF8000003208DF8020010
:104AA00069460A48FBF74CFD0DE0002409E0144874
:104AB000015D0648FBF7F8FD0120FFF7BBFC601C19
:104AC000C4B2082CF3DBF0E7000800400008014006
:104AD0000014014079000020780000207C000020B4
:104AE00018ED00E000E400E0840D00203B480008E1
:104AF000440C002071470008C40E002051470008F4
:104B000070000020704700BFFEE700BFFEE700BF57
:104B1000FEE700BFFEE77047704710B5FFF766FD80
:104B2000044637480078401C354908702046FFF796
:104B300061FDFDF7E2FDFDF7B5FC10BD10B50121EB
:104B40008807FDF718F901284ED100242D48007878
:104B5000012800D120E02B480078022801D1C82488
:104B60001AE028480078032802D14FF4C87413E0F3
:104B700024480078042802D14FF416740CE0214830
:104B80000078052802D14FF4487405E01D480078EC
:104B9000062801D14FF480641B480088401E0004A1
:104BA000000C194908801AD10A200880174800789B
:104BB00007280AD100214FF08040FDF7ABF82146CD
:104BC0004FF08040FDF7A8F809E021464FF0804003
:104BD000FDF7A0F800214FF08040FDF79DF801217E
:104BE0008807FDF7D9F800BF10BD10B5402108486F
:104BF000FDF7C1F818B140210548FDF7CDF810BD0B
:104C00004100002078000020800000207900002072
:104C10000008004000BF704710B5044621462348F5
:104C2000FCF7E8F800BF40212048FCF751F90028C4
:104C3000F9D010BD70B504460D46E0B2FFF7ECFFA9
:104C4000204670BD08B54FF40070ADF80000182084
:104C50008DF8030003208DF8020069461448FBF725
:104C60006FFC08BD10B5012144F20500FBF71EFFE3
:104C700010BD1FB5FFF7F6FFFFF7E4FF4FF4165026
:104C800000900020ADF80400ADF80600ADF8080073
:104C9000ADF80C000820ADF80A0069460348FBF7A0
:104CA000B0FF01210148FCF738F81FBD0038014072
:104CB0000008014008B54FF4FF60ADF80000032084
:104CC0008DF8020010208DF8030001218020FBF7F1
:104CD000EDFE69462248FBF733FC08BD10B50446DB
:104CE00021461F48FBF7E0FC10BD08B50820ADF8D1
:104CF000000003208DF8020010208DF80300012130
:104D00008020FBF7D3FE69461548FBF719FC08BD68
:104D100010B5044624B108211148FBF7BCFC03E0A0
:104D200008210F48FBF7B9FC10BD0E4800BF010079
:104D3000A0F10100FBD1704770B5044600250BE0DF
:104D40000120FFF7E5FFFFF7F0FF0020FFF7E0FF8E
:104D5000FFF7EBFF681CC5B2A542F1DB70BD000098
:104D6000001C0140FFFF0F0008B500208DF8030074
:104D70000220ADF8000069462448FBF7E1FB08BDBE
:104D800000B585B001214FF40470FBF78FFEFFF7EB
:104D9000EBFF1F48FDF704F801208DF80500002007
:104DA00003904FF4602002900020009001208DF8C5
:104DB000100000208DF8040069461548FDF717F82B
:104DC0000020FBF7DAFD072301220B211048FDF735
:104DD000A6F801210E48FDF736F80D48FDF755F805
:104DE00000BF0B48FDF765F80028FAD10848FDF729
:104DF0005BF800BF0648FDF75CF80028FAD10121F6
:104E00000348FDF760F805B000BD00000010014048
:104E100000240140704770477047704770477546DF
:104E200000F028F8AE4605006946534620F007001A
:104E3000854618B020B5FBF7B5F9BDE820404FF026
:104E400000064FF000074FF000084FF0000B21F074
:104E50000701AC46ACE8C009ACE8C009ACE8C00941
:104E6000ACE8C0098D4670470446AFF30080204689
:104E7000FBF783F90048704708100020000001008C
:104E80000200010003000100020001000400010013
:104E90000200010003000100020001000500010002
:104EA00002000100030001000200010004000100F3
:104EB00002000100030001000200010006000100E1
:104EC00002000100030001000200010004000100D3
:104ED00002000100030001000200010005000100C2
:104EE00002000100030001000200010004000100B3
:104EF00002000100030001000200010007000100A0
:104F00000200010003000100020001000400010092
:104F10000200010003000100020001000500010081
:104F20000200010003000100020001000400010072
:104F30000200010003000100020001000600010060
:104F40000200010003000100020001000400010052
:104F50000200010003000100020001000500010041
:104F60000200010003000100020001000400010032
:104F70000200010003000100020001009C4F000834
:104F800000000020880000002801000824500008CC
:104F900088000020E01500004401000800A24A0437
:104FA00000000000000000000102030406070809D9
:104FB00000000000010203040102030406070809BF
:104FC00002040608000000000000000000000000CD
:104FD00000000000000000000000000000000000D1
:104FE00000000000000000000000000000000000C1
:104FF00000000000000000000000000000000000B1
:10500000000000000000000000000000300E390722
:105010000000000001070000000000000A0000007E
:04502000000000008C
:04000005080000ED02
:00000001FF
